{
  "contractName": "TestContract",
  "abi": [
    {
      "inputs": [],
      "payable": false,
      "stateMutability": "nonpayable",
      "type": "constructor"
    },
    {
      "constant": false,
      "inputs": [
        {
          "name": "_value",
          "type": "string"
        }
      ],
      "name": "setValue",
      "outputs": [],
      "payable": false,
      "stateMutability": "nonpayable",
      "type": "function"
    },
    {
      "constant": true,
      "inputs": [],
      "name": "getValue",
      "outputs": [
        {
          "name": "",
          "type": "string"
        }
      ],
      "payable": false,
      "stateMutability": "view",
      "type": "function"
    }
  ],
  "bytecode": "0x608060405234801561001057600080fd5b506102d2806100206000396000f3fe608060405234801561001057600080fd5b50600436106100365760003560e01c8063209652551461003b57806393a09352146100b8575b600080fd5b610043610160565b6040805160208082528351818301528351919283929083019185019080838360005b8381101561007d578181015183820152602001610065565b50505050905090810190601f1680156100aa5780820380516001836020036101000a031916815260200191505b509250505060405180910390f35b61015e600480360360208110156100ce57600080fd5b8101906020810181356401000000008111156100e957600080fd5b8201836020820111156100fb57600080fd5b8035906020019184600183028401116401000000008311171561011d57600080fd5b91908080601f0160208091040260200160405190810160405280939291908181526020018383808284376000920191909152509295506101f7945050505050565b005b60008054604080516020601f60026000196101006001881615020190951694909404938401819004810282018101909252828152606093909290918301828280156101ec5780601f106101c1576101008083540402835291602001916101ec565b820191906000526020600020905b8154815290600101906020018083116101cf57829003601f168201915b505050505090505b90565b805161020a90600090602084019061020e565b5050565b828054600181600116156101000203166002900490600052602060002090601f016020900481019282601f1061024f57805160ff191683800117855561027c565b8280016001018555821561027c579182015b8281111561027c578251825591602001919060010190610261565b5061028892915061028c565b5090565b6101f491905b80821115610288576000815560010161029256fea165627a7a72305820be655a8d484ab747f37f89b57ffcd2bd3ee9cbbeae540468582bcfbd1dc787040029",
  "source": "pragma solidity ^0.5.8;\n\ncontract TestContract {\n    string value;\n    \n    constructor() public {\n        \n    }\n    \n    function setValue (string memory _value) public {\n        value = _value;\n    }\n    \n    function getValue() public view returns (string memory) {\n        return value;\n    }\n}",
  "sourcePath": "/Users/yoon/myGit/blockchain/08_Truffle/contracts/TestContract.sol",
  "compiler": {
    "name": "solc",
    "version": "0.5.8+commit.23d335f2.Emscripten.clang"
  },
  "schemaVersion": "3.0.15",
  "updatedAt": "2019-09-09T00:37:47.321Z",
  "devdoc": {
    "methods": {}
  },
  "userdoc": {
    "methods": {}
  }
}